:060000000219FD02033CA1
:03000B0002008070
:0300130002034F96
:03001B000200B030
:03002B0002030AC3
:03005B0002035E3F
:030073000203295C
:10008000C0D075D01018B8CF0408208407B2848679
:100090008AD0D03253A4EFD284C2A98F8E7589AA98
:1000A000C289C28B758A00D2A8D2AAC228D0D03207
:1000B000C2A8C28E85588BC0D075D008C0E0C0F0F1
:1000C000C2CAA9CCAACDD2CAC3E99559F9EA955AB0
:1000D0007049C3E9955B4043955B503FB8103C784D
:1000E00000A9577D00E2FEC39DC399402E99EC33D1
:1000F000FC08E2FDC39EC399402199EC33FC08E261
:10010000FEC39DC399401499EC33FC08E2FDC39EE5
:10011000C399400799EC33FC088002806AE2FEC371
:100120009DC399406299EB33FB08E2FDC39EC399DE
:10013000405599EB33FB08E2FEC39DC399404899B3
:10014000EB33FB08E2FDC39EC399403B99EB33FBC5
:1001500008E2FEC39DC399402E99EB33FB08E2FDF4
:10016000C39EC399402199EB33FB08E2FEC39DC3B4
:1001700099401499EB33FB08E2FDC39EC3994007F5
:1001800099EB33FB08801E0530E53070021530C353
:10019000E5309432400AD225755C00755D0041FA65
:1001A00075310A41FAE2FEC39DC39940DA99EA33F8
:1001B000FA08E2FDC39EC39940CD99EA33FA08E2FA
:1001C000FEC39DC39940C099EA33FA08E2FDC39E7D
:1001D000C39940B399EA33FA08EBC46B6C6A3027D1
:1001E00001F4540F70A1C3EBF4FA9460FBECF454E7
:1001F0000F9400FC5018EA7C007B00600CC3135085
:1002000007B55C05055D8006E4F55C755D00302290
:100210001BC3EB94D0F5F0EC94074003ABF0FC303B
:100220002101B39226C3EB33FBEC33FCEB54F04CCF
:10023000C475F00584FAEC13FCEB132AFBEC3400D4
:10024000FC30E3047BFF7C07201C27301124EC707A
:100250000C798187F0C3EB95F05002ABF0E5376085
:0F0260001175F028A42BFBEC3400FC30E3047B79
:100270007C07EB54F84CC423F97007EB7004D225CB
:100280008005753200C225E53060021530C3E54DAA
:10029000FD954E4002AD4EC3ED995002EDF9E9F4E3
:1002A000F97A00302914EBF4540724C0F8E623F659
:1002B00030E007E92401F9700119C3E9940FFBEA62
:1002C0009400FC5005E4FBFC800DC3EB9550EC95CD
:1002D000514004AB50AC5189FC8BEA75310A302790
:1002E00019302816758E017589A2D28443A410781E
:1002F0000085648AC28DD2A980097800758A00D2EF
:10030000A8D2AAD0F0D0E0D0D032C0E0C2CF053C15
:10031000D223E5317004D22580021531302507E55E
:10032000320460020532D0E032C2AF53E67F53910F
:100330007F7592FA7593FFC218D2AF32C0E0E58A9A
:1003400085588BC0D075D008F208D0D0D0E032C22A
:10035000AAD28EC2CA85CC5985CD5AD2CA32327A37
:10036000007901801E7A00790580187A00790A8068
:10037000127A007964800C7A0079C880067A007954
:10038000FA8000090A8009781874FFD5E0FDD8F9D1
:10039000D9F5DAF3227A427B3580247A2D7B4D80A1
:1003A0001E7A267B5C80187A197B8C80127A147BEB
:1003B000AF800C7A427B1E80067A2D7B2C8000E574
:1003C000547001227902E4C294D5E0FDD291D5E0C7
:1003D000FDC291D5E0FDD294D5E0FDE920E002D246
:1003E0009030E002D292E554D5E0FDE920E002C26F
:1003F0009030E002C2927496D5E0FDD9C9EA78C87F
:10040000D8FED5E0F9DBBDC294227195719B71A134
:100410002271B971952271A1719B71952279998789
:1004200054B8010471958017B80204719B8010B80C
:10043000030471A18009B8040471A7800271AD7929
:1004400098875422901A70E493F4601D7C3E901AB1
:1004500074E493A3FB6012E493FA600471BF800616
:10046000EBF97A007183A3DCE82278A5E6F954035E
:10047000C2857002D285E9540CC2867002D286E928
:100480005430C2877002D287E954C0700022C290F3
:10049000C291C292C293C294C29575D5FF22201E0A
:0F04A0002E78FF201026E53B6022E543601E7496
:1004B000301102747F8543F084853BF0A4F8C5F0C9
:1004C000600278FFC3E8954F5002A84F884E22C3C0
:1004D000E54294A0E5439400E54E500314800104E6
:1004E0006002F54E22102301220567E56720E03700
:1004F000E55260267553FFE5BE601FE5BDC395520A
:1005000040187553C8940440117553969404400ADA
:1005100075536494044003755332202402A1B085BE
:10052000386575660CA1B0E552600FC3E54D955373
:1005300060084004154D8002054D302470E5675475
:1005400007B40127C3E53994785003E4800475F0BB
:100550000984A21392E7A21492E6A21592E5C213AF
:10056000C214C215F56575660E8042B40308756540
:10057000887566088037B405087565AA75660A80AF
:100580002CB4072978A6B6010DE5BE7003E48018E7
:10059000E5BD94148012E5BE700AE5BDC394EB502E
:1005A00007E48004E5BD2414F56575660275E890DE
:1005B000227542007543F022C2AFC2CAA8CCA9CDB1
:1005C000AA3C30CF010AD2CAD2AFC3EA13FAE91368
:1005D000F9E813F8201014C3E8953D883DF8E99533
:1005E0003E893E547FF9301E36C1D2AB3DAC3EADA4
:1005F0003F883D893E8A3FC3E89BE99CEA9D547F42
:1006000060087542FF7543FFC1A1AE40AF418B400A
:100610008C41C3E89EF8E99FF9AA42AB438011AA36
:1006200042AB43C3EB94044048940440132011268A
:10063000C3EB13FDEA13FCC3ED13FDEC13FC804A7E
:10064000EBC423FCEAC423541F4CFC7D00C3E91314
:10065000F9E813F88034EBC423FC541FFDEC54E09C
:10066000FCEAC423541F4CFCC3E913F9E813F880D7
:1006700019EBC4FCEAC4540F4CFC7D00C3E913F928
:10068000E813F8C3E913F9E813F8C3EA9CFAEB9D01
:10069000FBEA28F542EB39F54350067542FF7543F6
:0F06A100C3E54394025002D21EE543C4FA540F3E
:1006B000FBEA54F0FAE542C4540F4AFAC3EA940242
:1006C000FAEB9400FB40057048EA70457A017B0024
:1006D000803FAA42AB43EBC4FCEAC4540F4CFCC3BA
:1006E000EA9CFAEB9400FBE80303543F2AFAEB344C
:1006F00000FB8A428B43C394024002C21EEBC4FE3D
:100700007B00EAC4540F4EC39402FA400270027A8E
:1007100001202806301808120AE930180280FB85EB
:100720004992854A93D21843E6807892E6FFC3E463
:100730009AF8E49BF9C3E833F8E933F9201E7F30D7
:1007400010047F038015C3E5389482400E0F941E79
:1007500040010FC3EF940640027F05E8FAE9FBD39E
:10076000E913FDE813FC8C478D488849894AC3EF9B
:100770009403602BEF20E00CE82CF8E93DF9ECFA4B
:10078000EDFB800BE8D338F8E939F97AFF7BFFC33A
:10079000EF9403400A8A4B8B4C88458946805088E9
:0F07A0004B894C8A458B46301045754BF0754C94
:1007B0007547F07548FF7549F0754AFF8031E8FAD2
:1007C000D313FC8C478849C3EF9403601EEF20E0ED
:1007D00007E82CF8ECFA8007E8282401F87AFFC330
:1007E000EF940340068A4B88458004884B8A452055
:1007F0002806301808120AE930180280FB75350205
:10080000D21843E68030112DA842A943C3E913F959
:10081000E813F8301004E92440F9C2AF53E67F75BD
:100820009100C3E498F594E499F595759104D21874
:1008300043E680D2AF2275F000301D0E75F0408087
:100840000975F040301D0375F000D2197544007A27
:10085000027B02201E1D301102C2193010067A36AA
:100860007B36800F7B28E543700104FAC39428404F
:10087000027A28201810E544600C301003D53504A6
:10088000D21A806611000544E59B5440B5F00DE591
:100890003460BC2019B9DADBC21A804E20100B205C
:1008A00019110AC3EA9B40CB80A50AC3EA9B400109
:1008B0001A80C0C21953E67F759100301E117594DD
:1008C000007595F0759104D21843E68002084FE553
:1008D000437EFFC3334009C3334005C3334001FEA9
:1008E000C3E49E759400F59580DAC2AF53E67F8528
:1008F0004592854693759100854B94854C957591ED
:1009000004D21843E680D2AF201013301A122011FF
:100910000F201D0C2019091581158102126905345B
:1009200022E53875F007A430190405F0D213A2F0BF
:1009300013A2F113A2F213F538C39478500375385B
:1009400078C3E53895394003853839C3E538953A99
:10095000400BD214C290C291C29275D5FF202805D7
:1009600030180751E930180280FB8547928548937B
:10097000D21843E6802220120FC2AFC294D29375E0
:10098000D5DBD2AF759F2322C2AFC294D29575D565
:10099000F6D2AF759F232220120FC2AFC29275D537
:1009A000EDD293D2AF759F1322C2AFC29075D5ED31
:1009B000D295D2AF759F032220120FC2AFC293D23D
:1009C0009575D5EDD2AF759F0322C2AFC295D29374
:1009D00075D5EDD2AF759F132220120FC2AFC29111
:1009E00075D5F6D295D2AF759F2322C2AFC291754D
:1009F000D5DBD293D2AF759F232220120FC2AFC294
:100A000095D29475D5F6D2AF759F1322C2AFC2931B
:100A1000D29475D5DBD2AF759F032220120FC2AFDF
:100A2000C29075D5DBD294D2AF759F0322C2AFC2FC
:100A30009275D5F6D294D2AF759F13227432A284E8
:100A400040032084F750033084F2D5E0F39227224C
:100A5000E55C700122F8C39406500FC2AF12048EF9
:100A600012041D120377D2AF8078C3E55D9406406F
:100A700077B80704C221806AB80804D2218063B81D
:100A80000904C222805CB80A04D2228055B80D0A3B
:0F0A900075650075660ED2248048B80E0A75652C
:100AA00075660EC224803BB8140A7988E714A2E068
:100AB0009221802EB8150B7988E714A2E0B3922119
:100AC0008020B80C1DE4A22192E0A22292E10479D8
:100AD00088F77555A57556F1B15E755500755600C8
:100AE000D2AF755C00755D0022C0D075D010BE001D
:100AF00039E566702EC2AFE542854327D2AFA238F2
:100B000013F9A2391329FAE52703C2E7F903C2E76B
:100B100039FBE527232354FCFCC3EA9CF526EB9420
:100B200000F5270E201803D0D022BE0124E5667000
:100B300010E527705DE526701175270F7526FF807B
:100B4000098565268566277566000E201803D0D0B6
:100B500022BE0215E526C465266527F478D0A65E78
:100B6000910F0E201803D0D022BE030BE526910F63
:100B70000E201803D0D022BE040CE526C4910F0E1F
:100B8000201803D0D022E527910F087E00D0D0D2C4
:100B9000282220E71620E61D20E52720E43420E364
:100BA0004120E25020E15CE526614AA23733F52678
:100BB00075270F614AA23733A23633F52675270D04
:100BC000614AA23733A23633A23533F52675270B97
:100BD000614AE52654F0C23C4527C4F5267527092D
:100BE000614AE526A23813A23913A23A13F52675F5
:100BF0002707614AE526A23813A23913F52675277F
:100C000005614AE526A23813F526752703614A5483
:100C10000F23900C167381368140814D815E81686F
:100C20008175817F819381A081B481BB81CC81D684
:100C300081ED81F7A10B08A66008A65E08A65E22DA
:100C400008A65E08A65F08A65E08A65E2286F0E5F6
:100C50005FB5F002E560F608A66008A65E2208A669
:100C60005E08A66008A65E2208A65F08A65E08A623
:100C70005E08A65E2208A65F08A65F08A65E22861A
:100C8000F0E55FB5F002E560F608A65E08A65F082D
:100C9000A65E2208A65E08A65E08A65F08A65E22DB
:100CA00086F0E55FB5F002E560F608A65F08A65E8F
:100CB00008A65E2208A66008A65F2286F0E55FB55A
:100CC000F002E560F608A65F08A65F2208A65E08A7
:100CD000A65F08A65F2286F0E55FB5F002E560F644
:100CE00008A65E08A65E08A65E08A65E2208A65FA5
:100CF00008A65E08A65F2286F0E55FB5F002E56013
:100D0000F608A65E08A65E08A65F2208A65E08A6EC
:100D10005E08A65E08A65F22901A0D7820B19EE5B7
:100D200020B4550AA3B19EE520B4AA0280127555DD
:100D3000A57556F1D125B15E755500755600801D1B
:100D4000901A0378807B0AB19EA308DBFA901A0FF1
:100D5000788C7B1BB19EA308DBFA901A2A22C2AFC3
:100D6000B1E1D103B1BE901A007400B1A3A3741312
:100D7000B1A3A374CEB1A3901A0378807B0AB1A269
:100D8000A308DBFA901A0F788C7B1BB1A2A308DBB7
:100D9000FAB1F4D116B1D2901A2A12037722E49351
:100DA000F622E6438F01538FFDFFC3E583941C4079
:100DB0000122EF8555B78556B7F0538FFE22438F3A
:100DC00002438F018555B78556B7901A0DF0538FA2
:100DD000FC22901A0D7455B1A3901A0E74AAB1A3F7
:100DE000227A3079D07820901A40B19EE520F70918
:100DF000A3DAF7227A3079D0901A40E7B1A309A399
:100E0000DAF9227A8C79007820901A70B19EE52068
:100E1000F309A3DAF7227A8C7900901A70E3B1A370
:100E200009A3DAF922788076FF087633087601087C
:100E300076010876190876FF087609087660087644
:100E4000010876FF08080876FF0876FF0876FF0895
:100E500076FF0876FF0876FF0876040876FF0876A6
:0F0E61000876FF0876FF0876FF08762808765097
:100E70000876040876FF0876020876FF0876FF08F1
:100E800076FF0876070876FF0876FF0876FF087673
:100E900000087600087602227888E614A2E1922201
:100EA000A2E092217884745096500276507886742D
:100EB0000D965002760D863B789CE6753AFFB4029B
:100EC00003753AA0B40303753A8275520078A0E620
:100ED000F9600F78A6B601047453800274282409BF
:100EE000D9FCF55278988654788DE6755100F55006
:100EF000B6FF037550FF7883E624FF922978C07609
:100F00000008760108761108762508765508765B84
:100F100008767708767F227555007556007597DE3E
:100F20007597AD7581B043FF8075EF0675A9001206
:100F3000048E7580FF75F1F075A4E07580FF75D49F
:0E0F410075900075F23F75A53F75900075D54F
:100F500075A60175A72075F30175CC0175A70075FD
:100F6000E34075E20212048EE4F8F6D8FDD125B113
:100F700018D198C2AF12037112044412046A12030A
:100F800071C2AF75550075560012048E75A91375A0
:100F9000A71075C10075A700780979007A00308420
:100FA0000CDAFBD9F9D8F7120411021C00302A0E12
:100FB00012040A12037D12037D12037DC22A758872
:100FC00051758E017589AA758C00758D0075C804E0
:100FD00075910475D84075D90875F780759E0775A9
:100FE000960275DA4275DB42759B80759D0078A686
:100FF000B6010575D11C800375D10C75BCB975BBE4
:101000001075E88075B20112035F120A3C75E4C4E2
:1010100030270375E44CC213C214C215C228C2247F
:1010200075A82D75E68075B803D2AF758E0C75580E
:1010300080755710755B50755EF7755FE77560D604
:101040007564E17561EB7562CA7563A975300A1242
:101050000371E530602B7558C0755708755B2875AE
:101060005EFF755FF77560EF7564E17561FB756232
:10107000EB7563DA75300A120371E5306003020F15
:1010800081C0D075D010AF8ED0D0D22A753700C2B3
:10109000AF1203B3D2AFC3E532940A40F9C2AF1224
:1010A00003B9D2AFE4F542F543F55CF55DF533F5F0
:1010B0003CC3E53C945E4033753C000533789AE6CA
:1010C0007814146012782814600D7864146008781D
:1010D000C8146003753300C3E53398400E153378A8
:1010E00004C2AF12048E12041DD2AF202806120AC9
:1010F000E91204E530250CE5317003020F81120A74
:101100005080AE1203712025A8C2AF12048ED2AF58
:10111000E4F522F523F538F53912035F756600C250
:10112000AF7984874F854F4D854F4E854F5375A7B7
:101130001075C13075A70075A903C3E55833F5587C
:10114000C3E55B33F55BC3E55733F557E55EC56132
:10115000F55EE55FC562F55FE560C563F5607564E2
:101160003CD2AFA2219212302204A2269212D210B7
:10117000D21175340075360C1209FA120A1B1205C9
:10118000B11205B81205B11205B81205B112084125
:101190001209211209761205B812083612049E129D
:1011A00009211209971205B81208411209211209E2
:1011B000B81205B81208361209211209D91205B859
:1011C0001208411209211209FA1205B81208361242
:1011D0000921120A1B1205B81204E530113530102E
:1011E0001A854F4DC3E5349418500530259F807EF5
:1011F000C210754DFF754EFF7553FF201D15E53666
:1012000014600AF5363025852022828061C211D211
:101210001C218D753700D21B30251320220C79A498
:10122000E76007C3E53294035044E5316040202273
:1012300009C3E54394F05036218D201D122012057C
:1012400020260580EC2026E9D21D854F4D21B4854E
:101250004F4DC3E5439420400EC21DA2269212D2E8
:1012600011753612854F4D218D201B020537C2AFF7
:10127000C22412048E75220075230075A91375A768
:101280001075C10075A700D3E55813F558C3E55B89
:1012900013F55BC3E55713F557E55EC561F55EE5EC
:1012A0005FC562F55FE560C563F5607564E1D2AF67
:1012B000202519D215C3E537940450061203710294
:1012C0001109C2AF120416D2AF021081753700782F
:0D12D000A4E66006D293D294D2950210A439
:0319FD00020F17BF
:0F1A00000013CEFF33010119FF096002FF55AA41
:011A150004CC
:051A1B00285004FF0249
:071A230007FFFFFF000002B6
:101A4000234A5F485F31352320202020202020209A
:101A500023424C48454C492445464D3842323123B7
:101A6000426C75656A61792020202020202020208A
:101A7000023A042034420D00452D0D0034420D0081
:0B1A80004E27D300452DD0193419006B
:101C0000C2AFC2D37597DE7597AD7581C075A90057
:101C100043FF80752438752503B1DB7529A5752A26
:101C2000F143F11053A4EFD28475D4FF75E3407DE6
:101C3000FA780379E67C10752200752300901DE880
:101C40007B0675249875250130840281482084081C
:101C5000D8FBD9F9DCF781BA308408D8FBD9F9DC94
:101C6000F781BAB19BE493A3C39A6004DDC381BA40
:101C7000DBDBB18D600281317B08E493FAA3B16EA6
:101C8000DBF87A30B16E752200752300B18DEAFC65
:101C9000EBFDC3ED94FE400EB18D8A278B28ED300D
:101CA000E0048A828B83B18D7AC270D8C3ED94FE32
:0F1CB000601950CEBD0029EC600F752000752122
:101CC000752900752A000200008100A827A92808AC
:101CD00009D804D90281DDB191EAF281D10D81A642
:101CE000C3ED94035051EDA2E092007AC5C3E582A2
:101CF0009400E583941C508C200010438F02438F86
:101D0000018529B7852AB7F0300027A827A9280818
:101D100009438F01538FFDD804D902A132C3E58353
:101D2000941C4003A3A117E28529B7852AB7F0A325
:101D3000A117538FFC81827AC1BD030CE493A3FAEF
:101D4000B152DCF8B14A81828184AA22AB23B16E00
:101D5000EBFAEA6222752608C3E52313F523E52290
:101D600013F52250066323A0632201D526EAB1DBD6
:101D7000B1DB75260AEAF4200102D284300102C2E6
:101D800084B1DBC3134002C201D526EB22B191EA34
:101D9000FB208402A191308402A196752608AE240E
:101DA000AF25C3EF13FFEE13FEB1DFB1DBC3EA13C0
:101DB0003084024480FA30E703632201C3E5231331
:101DC000F523E52213F52250066323A0632201D5F3
:101DD00026D9E52265236523F52222AE24AF250E00
:101DE0000FDEFEDFFCD20122424C48656C693437BD
:061DF0003164E8B20601B7
:00000001FF