:060000000219FD02079841
:03000B00020305E8
:030013000207A53C
:03001B000204F3E9
:03002B000203517C
:03005B000207B7E2
:0D0073000203850406080C101820304060C0
:1000800080A0C0C2AFC08290008B7301AB01BC01E5
:10009000D001E401F52109211A21312145215C21FA
:1000A0006A217E218F21A921BA21D1D082D2AFA687
:1000B000F008A66F08A66D08856DF022D082D2AF39
:1000C000A6F008A66D08A66E08A66D08856DF0223C
:1000D000D082D2AFE56EB5F002E56FF608A66F08E4
:1000E000856DF022D082D2AFA6F008A66D08A66F6B
:1000F00008856DF022D082D2AFA6F008A66E08A6C1
:100100006D08A66D08856DF022D082D2AFA6F008EA
:10011000A66E08A66E08856DF022D082D2AFE56E7D
:10012000B5F002E56FF608A66D08A66E08856DF0BD
:1001300022D082D2AFA6F008A66D08A66D08A66EE2
:1001400008856DF022D082D2AFE56EB5F002E56F82
:10015000F608A66E08A66D08856DF022D082D2AF93
:10016000A6F008A66F08856EF022D082D2AFE56EA9
:10017000B5F002E56FF608A66E08856EF022D08213
:10018000D2AFA6F008A66D08A66E08856EF022D044
:1001900082D2AFE56EB5F002E56FF608A66D08A64F
:1001A0006D08A66D08856DF022D082D2AFA6F0084A
:1001B000A66E08A66D08856EF022D082D2AFE56EDD
:1001C000B5F002E56FF608A66D08A66D08856EF01D
:1001D00022D082D2AFA6F008A66D08A66D08A66D43
:1001E00008856EF022E52BA25733F52A752B0F8078
:1001F00075E52BA25733A25633F52A752B0D806671
:10020000E52BA25733A25633A25533F52A752B0B93
:100210008054E52A54F0C25C452BC4F52A752B099D
:100220008044E52AA25813A25913A25A13F52A753D
:100230002B078032E52AA25813A25913F52A752BF1
:10024000058023E52AA25813F52A752B0380172071
:100250005F93205E9C205DA8205CB7205BC4205A81
:10026000D32059DFE52AC4652A652BF4F57022C234
:100270002E78E9302D0278D1856DF0E57023541E7B
:10028000118385F0708871228570F0A871E52A23AA
:10029000541E118385F0708871228570F0A871E575
:1002A0002AC423541E118385F0708871228570F052
:1002B000A871E52B23541E1183A6F008E878E830D6
:1002C0002D0278D0F6C2AF202B05B22DD2AF22D2AC
:0F02D0002ED2AF22E52DB4F00DE52C7009752A62
:1002E000752BFF514F22E52CA26813F52AA2691342
:1002F000252AF52AE52D03C2E7F52B03C2E7352BA6
:10030000F52B514F22202B0132C0D0C0E075D01107
:1003100018E8B56C3320850BD285856D8A08D0E04E
:10032000D0D03275A400D285C22B758E0C7589AAE7
:10033000C2A9C289C28B758A00758C00758200D2F1
:10034000A8D2AAD0E0D0D032B285868AD0E0D0D070
:1003500032C0D0C0E0C2CF053BE5606009E55F6018
:1003600005755F00801A755F01E53160021531E5A2
:100370004C6005754D008008054DE54D7002154D2A
:0F038000D0E0D0D032C2AF53E67F7592FA7593BA
:10039000C21053917FD2AF32758200752700752845
:1003A00000752900780075F000E0C0E0C395F0D03A
:1003B000F0C395644002D2430582E0C0E0C395F0EB
:1003C000D0F0C395644002D2420582E0C0E0C395FC
:1003D000F0D0F0C395644002D2410582E0C0E0C392
:1003E00095F0D0F0C395644002D2400582E0C0E0B1
:1003F000C395F0D0F0C395644002D23F0582E0C0BF
:10040000E0C395F0D0F0C395644002D23E0582E08F
:10041000C0E0C395F0D0F0C395644002D23D0582A0
:10042000E0C0E0C395F0D0F0C395644002D23C0533
:1004300082E0C0E0C395F0D0F0C395644002D23BA7
:100440000582E0C0E0C395F0D0F0C395644002D2CD
:100450003A0582E0C0E0C395F0D0F0C39564400255
:10046000D2390582E0C0E0C395F0D0F0C395644076
:1004700002D2380582E0C0E0C395F0D0F0C39564A5
:100480004002D24B0582E0C0E0C395F0D0F0C395A6
:10049000644002D24A0582E0C0E0C395F0D0F0C3C8
:1004A00095644002D2490582E0C0E0C395F0D0F0E7
:1004B000C395644002D2480582E527C465276528B4
:1004C000302701F46529540F22900000D2A8D2AA47
:1004D0000530E53070021530C3E5309432400A75BE
:1004E0004C00D0F0D0E0D0D03275310AD0F0D0E05E
:1004F000D0D032C2AFC2A8C28EC0D0C0E0C0F075AA
:10050000D010C2CAA8CCA9CDD2CAD2AF758A00C3B6
:10051000E89566F8E99567F9E970AEE8956840A94D
:10052000956950A5E582B410A07198709C85276AE2
:1005300085286BD22C20270E900000D2A8D2AAD0FA
:10054000F0D0E0D0D032302E04B22DC22E756CD057
:10055000302D03756CE878D0302D0278E8E6C28D36
:10056000758A36758E097589A2D22BD2A9D2857566
:10057000A42075D011F8D0F0D0E0D0D0320483227E
:10058000007EBDFCFCA23692E2A23792E3048322F5
:10059000FDFC7C3CFE7E3E1E7F3F1F0FA23692E29A
:1005A000A23792E3048322820803008120010080A5
:1005B000200000C22CC2AFA96AE56AC39460FAE5C4
:1005C0006BD2AF9400FB50177B007A00E96010C338
:1005D00013500CB54A04054B8005F54A754B0020B5
:1005E000310AC2AF75E90075EA00D2AF302A27C3DD
:1005F000EA94D0F8EB9407F9400BE8FAE9FB2025E0
:1006000009D225C10A302502C225202902B225C3FC
:10061000EA33FAEB33FBEB2B3B3BF9C3EB13FBEA7F
:0F06200013FAEA29FAEB3400FB30E3047AFF7B8C
:10063000E5235403601D201A1AE55B33F9EB7007BC
:10064000C3E99A4002E9FAE5375403B17D2AFAEB8F
:100650003400FBC3EA33C4540FF8EB33C454F048FE
:10066000F87005EA60027801E53060021530D220AA
:10067000884CE54C6003754D00AC59C3E559955A5B
:100680004002AC5AC3EC954C5008EC75F008A4FA43
:10069000ABF08A523037155352078BF07900EAA23B
:1006A000F013A2F113A2F213F4F880273036175397
:1006B0005207EB131392D5A2E7F45401F9EA13A2FF
:1006C000D513F4F8800D535203EB13F45403F9EAF5
:1006D00013F4F8C3E8941FFAE99400FB50047A007D
:1006E0007B00C3E89578F554E99579F55550067582
:1006F0005400755500E54C54FE70067554FF857A1C
:1007000055C3E554941FF556E5559400F557500927
:1007100075560075570075541F301A54C215C3E83A
:10072000954EF5F0E9954F504943F00F55F0F5F02F
:100730007400B18545F0B4FF1D7401B18545F0B476
:0F074100197402B18545F0B4FF157403B18545F5
:10075000F0B4FF11802A857458800D857558800883
:100760008576588003857758E54C54E06002C214C2
:10077000800E53F0F045F055736005755802D215A0
:10078000884E894F8A508B5120300975580120318D
:1007900003120CF675310A22C0E0E58AF005828565
:1007A000658BD0E032C2AA85658BD28EC2CA85CC59
:1007B0006685CD67D2CA3253E6EF3279018014796B
:1007C000038010790A800C791E800879648004798E
:1007D000C880007817E4D5E0FDE8C0E0E9C0E0306B
:1007E0002C02B1B3D0E0F9D0E0F8D8E9D9E522780D
:0F07F10020182879A1E76023E52D601F74FF858C
:100800002DF084853AF030190375F005A4F8C5F091
:10081000600278FFC3E8955B5002A85B885A22C348
:10082000E52C94A0E52D9400E55A500314800104B2
:100830006002F55A2275E89022055CC3E55C9408D5
:10084000405330EDF4A8BDA9BE755C00E9FA79A06B
:10085000E76041EA7006E55D6018800CC3E8955DCD
:10086000600EE55D5005600A1480070460FA80029E
:10087000E55DF55DC39563401B7559C0C3940440A5
:1008800013755980C39404400B755940C3940440B8
:100890000375590022E5592410500274FFF55922BE
:1008A000743279A687F0A4C5F0A2F733F55B227500
:1008B0002C00752DF012118622C2AFC2CAA8CCA995
:1008C000CDAA3B30CF010AD2CAD2AFC3EA13FAE9AC
:1008D00013F9E813F8AB3CAC3D883C893DC3E89B79
:1008E000F8E99C20180A547FF9301C0221D6804078
:0F08F000AD3E8A3EF9EA9D547FFA600678FF79A3
:100900008013AE3FAF408B3F8C40A83CA93DC3E86D
:100910009EF8E99FF9C3E52D13FBE52C13FAE82AAD
:10092000F52CE93BF52D5006752CFF752DFF804DFC
:10093000AA2CAB2DAC2CAD2D7E047F02C3EB94040E
:10094000400D1E1FC3EB940840052019021E1FC353
:10095000ED13FDEC13FCDEF7C3EA9CFAEB9DFBEF15
:100960006009C3E913F9E813F8DFF7EA28FAEB396D
:10097000FB8A2C8B2D50067BFF8B2C8B2DC3EB948D
:0F098000025002D21C3018047F03801C7892E6CC
:10099000C3E538948240110FC3E53894A040010F9D
:1009A000C3EF940640027F057E02E52DC4540FF983
:1009B000E52DC454F0F8E52CC4540F28F8C3E89E84
:1009C000FAE99400FB400AC3EA9401EB9400400169
:1009D000227A01E4FB22AA2CAB2DEBC4FEEAC4541C
:1009E0000F4EFCC3EA9CFAEB9400FBC3E813C3135D
:1009F000F8EA28FAEB3400FB8A2C8B2DC3EB940227
:100A00004002C21C7802EBC4FE7B00EAC4540F4EC5
:100A1000FAC3EA98FA4005C3940150027A01789229
:100A2000E6FF223010024123854692854793D2107B
:100A300043E68022C3E49AF8E49BF9C3E833F8E97B
:100A400033F9201C6FE8FAE9FBD3E913FDE813FC46
:100A500088468947C3EF94036037EF20E00CE82C09
:100A6000F8E93DF9ECFAEDFB8013E828F8E939F9EB
:100A7000C3E82401F8E93400F97AFF7BFFC3EF945F
:100A800003400E8A488B49884289438C448D4580B7
:100A900057884889498A428B438C448D45301812C7
:100AA0007548F07549FF7544F07545FF7546F0755A
:100AB00047FF8034E8FAD3E813FC8846C3EF940379
:100AC0006020EF20E007E82CF8ECFA41D4E8282475
:100AD00001F87AFFC3EF940340088A4888428C44A7
:100AE000800688488A428C4430100241E8753502FD
:100AF000D21043E680E5235403602DA82CA92DC312
:100B0000E913F9E813F8301804E92440F9C2AF53A7
:100B1000E67F759100C3E498F594E499F595759195
:100B200004D21043E680D2AF22D211754100752065
:100B300000301B037520406147D2117541007520BC
:100B400040301B0375200078017901201C28E52323
:100B500054036002C2117914E52DC313700104F827
:100B6000C3941440027814301804781B791BC3E82E
:100B700033F8C3E933F9201010E541600C30180355
:100B8000D53504D21261FA51F00541E59B5440B5C8
:100B9000200261E430180908C3E899400118617621
:100BA00020110A08C3E899400261476176C21153D7
:100BB000E67F759100301C117594007595F0759164
:100BC00004D21043E680020B47E52D7EFFC333407D
:100BD00009C3334005C3334001FEC3E49E7594004E
:100BE000F59561BEC3E534940150026147301102AE
:100BF0006147D80261F86176C212C2AF53E67F75D1
:100C00009100854894854995759104854292854364
:100C100093D21043E680D2AFE52354036007201936
:100C2000020534801030120D201B0A201107158197
:100C300015810217D72278003011027801E5387546
:100C4000F007A4F9E5F028F5F0E9A2F013A2F113FA
:100C5000A2F213F538C394785003753878C3E53899
:100C600095394009C290C292C29475D53F918030A7
:100C70001002816F854492854593D21043E680220D
:100C8000D235E52D54FC7002C235302C071205B365
:100C90002035012230271E202B1BD572191202ADE0
:100CA00075720530350F1202D412026F12028812CB
:100CB000029A75720122E572B404041202D422B4BD
:100CC000030412026F22B402041202882212029A52
:100CD00022E553455230370512181C800B3036057B
:100CE00012181C800312180BF5535353FEA2E0E5B3
:100CF0004E92E0F54E2291D1303717C2AF75D80031
:100D0000854EFB854EFC8550E98550EA75D840D26A
:100D1000AF22C2AF75D800854EFB854FFC8550E9E8
:100D20008551EA75D840D2AF223014473037197553
:100D3000D8008550F975FA00854EFB854EFC85502C
:100D4000E98550EA75D8402275D8008550F985515B
:100D5000FA53F77F854EFB854FFC8550E98551EAB4
:100D600043F780854EFB854FFC8550E98551EA7538
:100D7000D8402230371975D8008556F975FA0085A4
:100D800054FB854EFC8556E98550EA75D84022759E
:100D9000D8008556F98557FA53F77F8554FB85555A
:100DA000FC8556E98557EA43F780854EFB854FFC65
:100DB0008550E98551EA75D84022201549C2333063
:100DC000371975D80075F90075FA0075FB1E75FCAA
:100DD0000075E90075EA0075D8402275D80075F9EC
:100DE0000075FA0053F77F75FB1E75FC0075E9006E
:100DF00075EA0043F78075FB0075FC0075E9007526
:100E0000EA0075D84022D23320344730371975D8DC
:100E10000075F9FF75FA0075FBFF75FCFF75E900B9
:100E200075EA0075D8402275D80075F9FF857AFA01
:100E300053F77F75FBFF857AFC75E90075EA00437F
:100E4000F78075FBFF857AFC75E90075EA0075D8B7
:100E5000402230371975D80075F9E175FA0075FB35
:0F0E610075FCFF75E9E175EAE175D8402275D897
:100E70000075F9E1857AFA53F77F75FBFF857AFCF7
:100E800075E9E1857AEA43F78075FBFF857AFC75A1
:100E9000E9E1857AEA75D84022D213D5580405587D
:100EA000C21391D1201304B1298002B1BA22E558AE
:100EB000B40107B233303302B12C22202816C2AF5E
:100EC000C293C29575D50FD291D2AF303202D1AE56
:100ED000759F0322C2AFC291C29375D53CD295D201
:100EE000AF303202D1AE759F0322202816C2AFC2A6
:100EF00093C29575D533D291D2AF303102D1997565
:100F00009F1322C2AFC291C29375D533D295D2AF8F
:100F1000303102D199759F2322202816C2AFC29189
:100F2000C29375D533D295D2AF303202D1AE759F10
:100F30002322C2AFC293C29575D533D291D2AF30BE
:100F40003202D1AE759F1322202816C2AFC291C2C1
:100F50009375D53CD295D2AF303102D199759F03AC
:100F600022C2AFC293C29575D50FD291D2AF3031A4
:100F700002D199759F0322202816C2AFC291C29553
:100F800075D53CD293D2AF303202D1AE759F1322C9
:100F9000C2AFC291C29575D50FD293D2AF30320293
:100FA000D1AE759F2322202816C2AFC291C295757B
:100FB000D50FD293D2AF303102D199759F2322C27F
:100FC000AFC291C29575D53CD293D2AF303102D128
:100FD00099759F13227A147B7880127A107B8C800B
:100FE0000C7A0D7BB480067A0B7BC88000E55ED559
:100FF000E001227902E4C293D5E0FDD292D5E0FD72
:10100000C292D5E0FDD293D5E0FDE920E002D29076
:1010100030E002D294E55ED5E0FDE920E002C29026
:1010200030E002C2947496D5E0FDD9C9EAF8D5E063
:10103000FDD8FBDBB8C29322C290C292C294C29187
:10104000C293C29575D53F22788076FF0876FF0857
:1010500076FF0876FF0876FF0876FF08760908769F
:0F106100087601788C76010876FF0876FF08760E
:0E1071000876FF0876FF0876030876FF0876FB
:101080000876FF0876250876D00876280876500876
:1010900076040876FF0876020876FF08767A0876E6
:0F10A1000876070876010876FF0876FF087600C4
:1010B000087600227888E6C39403D22A5002C22A16
:1010C000C228E630E102D228A22892297886E614C6
:1010D000C2AFC083C08290007693D082D083D2AF5B
:1010E00078A6F67886E6F53AC394025003753A027C
:1010F000789CE67539FFB402037539A0B403037513
:10110000398278A0E6F8600674282409D8FCF563D3
:1011100011382278A5E6F954037000E9540C7000E8
:10112000E954307000E954C0700022756580756420
:101130002075686C756914756DFF756EEC756FDDE3
:10114000227565007564407568D9756928756DEC00
:10115000756ECB756FAB22741E208515C0D0C0E0B4
:10116000740AD5E0FDD0E0D0D02085EBD5E0EDC30A
:1011700022C0D0C0E0740AD5E0FDD0E0D0D03085E8
:10118000D6D5E0EDD3223027211202D412026F12FD
:10119000028812029A1202AD1202D412026F1202D7
:1011A0008812029A1202AD75720522A23692E2A24C
:1011B0003792E304832200020383000181C100808F
:1011C000C0E07561007562007597DE7597AD758139
:1011D000AF43FF8075EF0675A90011387580FF7564
:1011E000F1F075A4007580FF75D4FF75900075F25D
:1011F0003F75A53F75900075D53F75A60175E34015
:1012000075E2021138E47800F6D8FD114812185D35
:101210007898865E7897E6A2E59236A2E692373015
:101220003702C236A2E7232354FC92E7B4800EC2F1
:1012300031C232757800757900C23041C4A2E7929C
:1012400032D23130370B23F578437801757900803D
:101250000C2333F578437803335401F57978968677
:10126000F0D230C3E5F094325044C3E5F0942850F6
:101270002FC3E5F0941E5015C3E5F094145000758B
:101280007402757501757601757701802DB40702BA
:10129000C230757402757502757601757701801A12
:1012A000757403757502757602757701800C757417
:1012B00004757503757602757701A2E292345403C2
:1012C00031ABF573C2AF1207CF120FD51207C71299
:1012D0000FDB1207C7120FE11207C73113C2AF7538
:1012E000610075620078FA79FA308516D9FBD8F773
:1012F00075A91375A71075C10075A7007560000268
:101300001C0075A71075C13075A70075A90375601D
:101310000111B47898865E113875C804759104750A
:10132000D84075D908740012059CF5F7759E0374B2
:101330000112059CF553740212059CF57A7558014B
:101340007556007557007554FF7555FF75960275F3
:10135000DA4275DB42759B80759D0075D10C75BCBA
:10136000B975BB1075E88075B201C22C1207BB7548
:101370003700C2201207CFD2243157922775E4D507
:1013800030270375E45DC22BC22CC22DC22E7572AC
:1013900005758851758E0C7589AA758C00758D0040
:1013A000758E0C75E68075B80375A8283141120852
:1013B000AFD2AF75300A1207CB754A00754B00C328
:1013C000E530940A4017312B75300A1207CB754A65
:1013D00000754B00C3E530940A400241DD1207BF9F
:1013E00020200241DDC2AF120FD5120FD5120FD54A
:1013F000D2AF1207CF7561007562001207CBE54CC2
:10140000600280F1C2AF120FE7120FE7120FE7D2AE
:10141000AF1207CF1208AFE4F532F5330532E532EB
:10142000F4703E0533789AE6781914601278321415
:10143000600D787D14600878FA146003753300C37A
:10144000E53398401C11381207BB1533753200780C
:1014500099865EC2AF120FE7D2AF7898865E120708
:10146000CB1207C3E531700241DD302C031205B306
:10147000C3E54C9401500AC3E54A94015016021486
:101480001C1207CBE53170030212DD754A00754B63
:1014900000021642C3E54A94017016C2AF113878B3
:1014A00099865E120FD57898865ED2AF1207CBC1AF
:1014B00034C3E54A94027016C2AF11387899865E3B
:1014C000120FDB7898865ED2AF1207CBC134C3E52A
:1014D0004A94037016C2AF11387899865E120FE1F4
:1014E0007898865ED2AF1207CBC134C3E54A940424
:1014F0007016C2AF11387899865E120FE778988619
:101500005ED2AF1207CBC134C3E54A94057016C250
:10151000AF11387899865E120FE77898865ED2AF61
:101520001207CBC134C3E54A94077019C3E54B9445
:10153000065002816A7401302A0274037888F6C268
:1015400028C229C134C3E54A94087019C3E54B94F5
:10155000065002816A7402302A0274047888F6D236
:1015600028D229C134C3E54A94097017C3E54B94C6
:10157000065002816A302A0BC37888E69402F6C2CC
:101580002AC134C3E54A940A7016C3E54B94065049
:1015900002816A202A0A7888E62402F6D22AC13417
:1015A000C3E54A9414702DC3E54B94065002816A3A
:1015B0007400C2AFC083C082901A0B93D082D083D4
:1015C000D2AF7888F613C228C2294002D22840023E
:1015D000D2298060C3E54A94157040C3E54B940658
:1015E00040587400C2AFC083C082901A0B93D0825F
:1015F000D083D2AFF8B801027402B802027401B805
:1016000003027404B8040274037888F613C228C273
:10161000294002D2284002D2298019C3E54A940CFD
:1016200070127561A57562F1C3E54B9406400B120B
:1016300018A4D2AF754A00754B0075610075620041
:10164000816A1138755C00752200752300753800B9
:10165000755C081207BB12083530EDFDA8BDA9BEA8
:10166000E97001F8885D120839755C08C2AF12088C
:10167000A0855B59855B5AD2AF302A07C228302536
:1016800002D228D218753400302C031205B3120F81
:1016900077120FA61208AF1208B9120A23120A34E1
:1016A0001208AF1208B9120A23120A341208AF1234
:1016B0000B39120C36120EBB1208B9120A23120A89
:1016C00034120B29201C031207EF301C0312081FD1
:1016D000120C36120EEA1208B9120A23120A341238
:1016E0000B39120C36120F191208B9120A23120AFA
:1016F00034120B29120C36120F481208B9120A23A1
:10170000120A34120B39120C36120F771208B91262
:101710000A23120A34120835120B29120C36120F42
:10172000A61208391208B9120A23120A34301827EF
:10173000855B5979187A0CC3E53499400EC218D2EA
:10174000198A36855B59855B5A800CC3E54C940138
:1017500040030216AFE1DF301921201B1EE53614CD
:101760007008C219D21AD214C1AFF536202A07C3A5
:10177000E54C940140030216AF8064753700202ABF
:101780000F78FA79A4E760027803C3E54D98504FCB
:10179000E531604B302A17202805202507800F30BF
:1017A0002502800A201B07D21B855B59C1F178F006
:1017B000301B05855B597820C3E52D985003021630
:1017C000AF301B1BC21BC228302502D228D219758C
:1017D0003612855B59C1AF0537E54C600280037551
:1017E0003700C2AF1138752300D2AF1207CB1138C2
:1017F00075220078A4E66006D291D293D295C3E513
:1018000037940440030212DD021414832201020300
:10181000050C080409050C080D09050C83220102BA
:101820000304050607093830282018100811093864
:1018300030282018101911093830282018211911C2
:101840000938302820292119110938302831292157
:1018500019110938303931292119110938901A0D17
:10186000782011DDE520B4550AA311DDE520B4AAE6
:101870000280137561A57562F112104811A475619B
:1018800000756200801D901A0378807B0A11DDA329
:1018900008DBFA901A0F788C7B1A11DDA308DBFAAB
:1018A000901A2922C2AF312011FD901A0074101134
:1018B000E2A3740911E2A3742111E2901A03788063
:1018C0007B0A11E1A308DBFA901A0F788C7B1A11BE
:1018D000E1A308DBFA31333111901A2922E493F69F
:1018E00022E6438F01538FFDFFC3E583941C400123
:1018F00022EF8561B78562B7F0538FFE22438F02D6
:10190000438F018561B78562B7901A0DF0538FFC44
:1019100022901A0D745511E2901A0E74AA11E22247
:101920007A3079D07820901A4011DDE520F709A3AC
:10193000DAF7227A3079D0901A40E711E209A3DA77
:10194000F9227C051207CFDCFB22C2AF120FD512A1
:101950000FDB120FE1120FE71207C3120FD5120FA0
:10196000DB120FE1120FE71207C3120FD5120FDBC4
:10197000120FE1120FE7D2AF22C2AF120FE7120F20
:10198000E1120FDB120FD51207C3120FE7120FE19E
:10199000120FDB120FD51207C3120FE7120FE1125D
:0819A0000FDB120FD5D2AF22BC
:0319FD000211C212
:031A0000100921A9
:071A090009FF02FF55AA01CD
:0B1A150004FFFFFF25A028B404FF021F
:081A21007AFF0401FFFF000041
:101A400023475F485F3330232020202020202020A0
:101A500023424C48454C492445464D3842323123B7
:101A60002020202020202020202020202020202076
:101C0000C2AFC2D37597DE7597AD7581C075A90057
:101C100043FF80752438752503B1DB7529A5752A26
:101C2000F143F12053A4DFD28575D4FF75E3407DE5
:101C3000FA780379E67C10752200752300901DE880
:101C40007B0675249875250130850281482085081A
:101C5000D8FBD9F9DCF781BA308508D8FBD9F9DC93
:101C6000F781BAB19BE493A3C39A6004DDC381BA40
:101C7000DBDBB18D600281317B08E493FAA3B16EA6
:101C8000DBF87A30B16E752200752300B18DEAFC65
:101C9000EBFDC3ED94FE400EB18D8A278B28ED300D
:101CA000E0048A828B83B18D7AC270D8C3ED94FE32
:0F1CB000601950CEBD0029EC600F752000752122
:101CC000752900752A000200008100A827A92808AC
:101CD00009D804D90281DDB191EAF281D10D81A642
:101CE000C3ED94035051EDA2E092007AC5C3E582A2
:101CF0009400E583941C508C200010438F02438F86
:101D0000018529B7852AB7F0300027A827A9280818
:101D100009438F01538FFDD804D902A132C3E58353
:101D2000941C4003A3A117E28529B7852AB7F0A325
:101D3000A117538FFC81827AC1BD030CE493A3FAEF
:101D4000B152DCF8B14A81828184AA22AB23B16E00
:101D5000EBFAEA6222752608C3E52313F523E52290
:101D600013F52250066323A0632201D526EAB1DBD6
:101D7000B1DB75260AEAF4200102D285300102C2E5
:101D800085B1DBC3134002C201D526EB22B191EA33
:101D9000FB208502A191308502A196752608AE240C
:101DA000AF25C3EF13FFEE13FEB1DFB1DBC3EA13C0
:101DB0003085024480FA30E703632201C3E5231330
:101DC000F523E52213F52250066323A0632201D5F3
:101DD00026D9E52265236523F52222AE24AF250E00
:101DE0000FDEFEDFFCD20122424C48656C693437BD
:061DF0003164E8B20601B7
:00000001FF